:100000000C942A000C9434000C9434000C943400AA
:100010000C9434000C9434000C9434000C94340090
:100020000C9434000C9434000C9434000C94340080
:100030000C9434000C9434000C9434000C94340070
:100040000C9434000C9434000C9434000C94340060
:100050000C94340011241FBECFE5D8E0DEBFCDBF25
:100060000E946D000C9484000C940000413069F4EF
:10007000E82FF0E0218181E090E002C0880F991F15
:100080006A95E2F7822B81830895E82FF0E02181C1
:1000900081E090E002C0880F991F6A95E2F7809591
:1000A000822381830895E82FF0E0208181E090E0B1
:1000B00002C0880F991F6A95E2F7822311F081E050
:1000C000089580E0089580EB87BB83E58DB91EB865
:1000D00008958FB9779BFECF089540E060E089E3F3
:1000E0000E9436000E94630060E089E30E94530092
:1000F0008111FACF81E30E94690060E089E30E94E8
:0C01000053008823D1F3F0CFF894FFCF18
:00000001FF
